:100000000C9434000C9453000C947B000C9451001D
:100010000C9451000C9451000C9451000C9451001C
:100020000C9451000C9451000C9451000C945C0100
:100030000C9451000C9451000C9451000C945100FC
:100040000C9451000C9451000C9451000C945100EC
:100050000C9451000C9451000C9451000C945100DC
:100060000C9451000C94510011241FBECFEFD8E026
:10007000DEBFCDBF11E0A0E0B1E0E2EBF6E002C0F0
:1000800005900D92A835B107D9F721E0A8E5B1E0B8
:1000900001C01D92AD35B207E1F70E945B020C94DE
:1000A00057030C9400001F920F920FB60F92112469
:1000B0008F939F9383ED90E30197F1F700C00000C9
:1000C0004A9912C080915A018F5F80935A018091A2
:1000D0005A01893218F081E08093590180915A01C8
:1000E0008A3F10F010925A019F918F910F900FBE8E
:1000F0000F901F9018951F920F920FB60F92112418
:100100008F939F9383ED90E30197F1F700C0000078
:100110004B9917C080915A01882331F080915A0180
:10012000815080935A0106C084E680935A0181E091
:100130008093590180915A01893218F41092590123
:100140005E989F918F910F900FBE0F901F90189502
:10015000E9E6F0E0808182608083E89A80818860AF
:100160008083E99A7894089587B18F7C87B95798EE
:1001700088B1806388B95F9A8AB183618AB987B18F
:100180008F6087B984B1806F84B9569A08952BB176
:100190002C7E37E0839FC0011124FC01EC5FFE4FF1
:1001A0008081922F982B8181880F282F292B928173
:1001B00030E1939FC0011124822B8BB928B1207F9D
:1001C0004381322F342B9481990F292F232B858142
:1001D000880F880F982F922B8681880F880F880FA1
:1001E000892B88B90895CF93C82F843680F089E28F
:1001F000C89F812D112482958F700E94C7002C9A70
:1002000083EF91E00197F1F700C000002C98CA300D
:10021000E8F09DECC99F812D1124869586958695E1
:10022000899F912D1124969596959695990F292F32
:10023000220F220F920F891B0E94C7002D9A83EF75
:1002400091E00197F1F700C000002D988DECC89F58
:10025000812D1124869586958695880F982F990F64
:10026000990F890FC81B8C2F0E94C7002E9A83EF0D
:1002700091E00197F1F700C000002E98CF9108950A
:100280000E94C7002F9A83EF91E00197F1F700C019
:1002900000002F980895E1E8F0E080818C60808371
:1002A00086EA9EE09093890080938800EFE6F0E074
:1002B00080818260808308951F920F920FB60F9203
:1002C00011248F939F939091580181E0911180E0C8
:1002D000809358019F918F910F900FBE0F901F90A8
:1002E000189580915801882311F05E9A08955E98C0
:1002F000089584B18E6084B9559AE0EBF0E0808176
:1003000083688083E1EBF0E0808184608083E0E8B3
:10031000F0E08081816A8083E1E8F0E0808189609B
:10032000808384B5836284BD85B5816085BD089571
:1003300080915A0180915A01803198F480915A013C
:1003400091E1899F802D112490E090938900809302
:10035000880010928B0010928A0018BC1092B30093
:10036000089580915A018031F8F080915A018A31C4
:10037000D8F480915A0129E1829FC00111248F573E
:10038000914090935C0180935B012FEF30E03093BC
:10039000890020938800992790938B0080938A008E
:1003A00018BC1092B300089580915A018A31F0F080
:1003B00080915A018432D0F480915A0129E1829FC0
:1003C000C00111248E57924090935C0180935B0191
:1003D0002FEF30E0309389002093880030938B001A
:1003E00020938A0018BC8093B300089580915A012D
:1003F0008432F0F080915A018932D0F480915A0110
:100400002AE2829FC0011124855A954090935C0195
:1004100080935B012FEF30E03093890020938800B8
:1004200030938B0020938A0088BD8FEF8093B300B8
:10043000089596B121E030E002C0220F331F8A9563
:10044000E2F7892F822390910101992379F081119C
:100450000DC087E893E10197F1F700C0000086B175
:10046000822321F41092010181E00895809301011B
:1004700080E0089599B121E030E002C0220F331FDF
:100480008A95E2F7892F822390910001992379F0D0
:1004900081110DC087E893E10197F1F700C00000DA
:1004A00089B1822321F41092000181E008958093A4
:1004B000000180E008950E9479010E94B4000E942A
:1004C000A8000E944B01789480910201813061F470
:1004D000109289001092880010928B0010928A006E
:1004E00018BC1092B30002C00E9498010F2EFAE0CF
:1004F000AF2EF02D0F2EFBE09F2EF02DBB24B394DA
:100500000F2EF8E8CF2ED12CF02D0F2EFAE8EF2E7B
:10051000F12CF02D03EB10E0C5E0D0E080915A0102
:10052000893218F4109258015E9884E00E941902F2
:10053000882349F0809103018A3019F490920301D5
:1005400002C0A092030185E00E941902882359F09D
:1005500080915901813011F410925A011092590181
:10056000109258015E9887E00E943A028823B9F001
:10057000909102018B2D911180E080930201809176
:100580000201813051F4F60111821082F7011182CB
:10059000108218BCF801108202C00E94980180915C
:1005A0000201882309F450C0809103018A30B9F414
:1005B00080915901813051F40E94710180915A015A
:1005C0000E94F300809103010E94400180915A0132
:1005D0000E94F300809103010E9440019FCF80910F
:1005E00059018130C9F40E94710180915A0190E053
:1005F0009C01220F331F220F331F220F331F820F44
:10060000931FBE010E942F0380E2860F0E94F30019
:10061000809103010E94400180915A0190E09C0169
:10062000220F331F220F331F220F331F820F931FFE
:10063000BE010E942F0380E2860F0E94F30080918A
:1006400003010E9440016ACF80915901813021F459
:100650000E9471010E9498010E9498015FCF97FB50
:10066000072E16F4009407D077FD09D00E944303AB
:1006700007FC05D03EF4909581959F4F08957095A5
:1006800061957F4F0895AA1BBB1B51E107C0AA1FAC
:10069000BB1FA617B70710F0A61BB70B881F991F23
:1006A0005A95A9F780959095BC01CD010895F894CD
:0206B000FFCF7A
:1006B2000101010A01010101010100000101000023
:1006C200000001010001010001010101010000011E
:1006D200000101000001010100010100010101000E
:1006E20001010101010101010000000001010101FC
:1006F20001010101010101000101010000010101EB
:080702000001000000010101EB
:00000001FF
