:100000000C9434000C9453000C9479000C9451001F
:100010000C9451000C9451000C9451000C9451001C
:100020000C9451000C9451000C9451000C94120249
:100030000C9451000C9451000C9451000C945100FC
:100040000C9451000C9451000C9451000C945100EC
:100050000C9451000C9451000C9451000C945100DC
:100060000C9451000C94510011241FBECFEFD8E026
:10007000DEBFCDBF11E0A0E0B1E0EEEBF6E002C0E4
:1000800005900D92A031B107D9F721E0A0E1B1E0D0
:1000900001C01D92A631B207E1F70E9493020C94B1
:1000A0005D030C9400001F920F920FB60F92112463
:1000B0008F939F9383ED90E30197F1F700C00000C9
:1000C0004A9910C0809115018A3F28F4809115014A
:1000D0008F5F8093150180911501893218F081E0BE
:1000E000809314019F918F910F900FBE0F901F90DE
:1000F00018951F920F920FB60F9211248F939F9312
:1001000083ED90E30197F1F700C000004B9915C013
:1001100080911501882331F08091150181508093E1
:10012000150104C01092150110921401809115015F
:10013000893218F4109214015E989F918F910F905C
:100140000FBE0F901F901895809115018091150199
:10015000803178F48091150191E1899F802D1124DF
:10016000809313011092120110921101109210014C
:100170006CC0809115018031A8F0809115018A3101
:1001800088F48FEF809313018091150199E1899F85
:10019000802D112480598093120110921101109228
:1001A000100153C0809115018A31A8F0809115018A
:1001B000843288F48FEF8093130180931201809131
:1001C000150199E1899F802D11248A58809311018E
:1001D000109210013AC0809115018332B0F18091E4
:1001E0001501893290F58FEF8093130180931201EE
:1001F000809311018091150193E3899F802D112433
:10020000895F8093100121C090911301891710F428
:10021000589A01C0589890911201891710F4599A70
:1002200001C0599890911101891710F45C9A01C08E
:100230005C9890911001891710F45D9A01C05D9847
:1002400000008F5F8F3F01F7089580E0DDCF87B119
:100250008F7C87B9579888B1806388B95F9A569A1E
:100260000895589859985C985D98089527E030E073
:1002700090E0AC01022E02C0559547950A94E2F732
:1002800040FF02C02B9A01C02B982D9A2D98215027
:10029000310978F70895CF93C62F28980E94360128
:1002A0008C2F0E943601289ACF91089560E089E052
:1002B0000E944B0168E08AE00E944B0167E08BE0FE
:1002C0000E944B0161E08CE00E944B0160E08FE0F6
:1002D0000E944B01089560E08CE00E944B0108955C
:1002E00061E08CE00E944B0108950F931F93CF9320
:1002F000DF93EC019C013695279536952795ABE762
:10030000B4E10E943A03AC01569547959A01ADECD1
:10031000BCEC0E943A03969587959695879596959D
:1003200087959C01220F331F880F991F880F991FF3
:10033000880F991F820F931FFA01E81BF90BFF2703
:10034000EB5FFE4F608184E00E944B019E01ADECAB
:10035000BCEC0E943A038C011695079516950795FB
:100360001695079598010E943A039695879596955C
:100370008795969587959C01220F331F880F991FAB
:10038000880F991F880F991F820F931FF801E81B90
:10039000F90BFF27EB5FFE4F608183E00E944B016A
:1003A000C801880F991F000F111F000F111F000FA8
:1003B000111F080F191FC01BD10BDD27CB5FDE4FAC
:1003C000688182E00E944B01DF91CF911F910F91D4
:1003D00008958A3029F46EE481E00E944B0108956B
:1003E00067E481E00E944B010895E9E6F0E0808136
:1003F00082608083E89A808188608083E99A78941B
:100400000895E1E8F0E080818B60808383EC99E0DF
:100410009093890080938800EFE6F0E0808182600D
:10042000808308951F920F920FB60F9211248F931D
:100430009F939BB180E489278BB99F918F910F90F7
:100440000FBE0F901F901895882319F00E9401028B
:100450000895E1E8F0E080818C7F80835E980895C4
:1004600096B121E030E002C0220F331F8A95E2F7F7
:10047000892F822390910201992379F081110DC077
:1004800087E893E10197F1F700C0000086B182236D
:1004900021F41092020181E008958093020180E02E
:1004A000089596B121E030E002C0220F331F8A95F3
:1004B000E2F7892F822390910101992379F081112C
:1004C0000DC087E893E10197F1F700C0000086B105
:1004D000822321F41092010181E0089580930101AB
:1004E00080E0089599B121E030E002C0220F331F6F
:1004F0008A95E2F7892F822390910001992379F060
:1005000081110DC087E893E10197F1F700C0000069
:1005100089B1822321F41092000181E00895809333
:10052000000180E008950E94F5010E94270178945F
:1005300084B1896284B98AB183638AB90E94560101
:100540000F2EFBE0FF2EF02D0AE011E0C5E0D0E019
:1005500080911501893218F480E00E94240284E021
:100560000E943002882349F0809104018A3011F002
:10057000802F01C08F2D8093040187E00E947202BA
:10058000882391F090910301812F911180E0809355
:10059000030180910301813029F40E9431010E94FE
:1005A000700102C00E946B0185E00E945102882305
:1005B00059F080911401813011F4109215011092BC
:1005C000140180E00E942402809103018823A1F19C
:1005D000809104018A3089F480911401813019F4EA
:1005E000812F0E9424028091150190E00E947501E4
:1005F000809104010E94E901ABCF80911401813008
:1006000019F4812F0E9424028091150190E09C0131
:10061000220F331F220F331F220F331F820F931F0E
:10062000BE010E942603CB0180960E947501809135
:1006300004010E94E9018CCF80911401813019F4EA
:10064000812F0E9424020E94A40082CF97FB072ED4
:1006500016F4009407D077FD09D00E94490307FCE7
:1006600005D03EF4909581959F4F089570956195C2
:100670007F4F0895A29FB001B39FC001A39F700D4B
:10068000811D1124911DB29F700D811D1124911D9A
:100690000895AA1BBB1B51E107C0AA1FBB1FA617C9
:1006A000B70710F0A61BB70B881F991F5A95A9F71B
:0E06B00080959095BC01CD010895F894FFCF80
:1006BE00010101010A7E306D79335B5F707F7B0033
:00000001FF
