:100000000C9434000C9453000C947B000C9451001D
:100010000C9451000C9451000C9451000C9451001C
:100020000C9451000C9451000C9451000C9451000C
:100030000C9451000C9451000C9451000C945100FC
:100040000C9451000C9451000C9451000C945100EC
:100050000C9451000C9451000C9451000C945100DC
:100060000C9451000C94510011241FBECFEFD8E026
:10007000DEBFCDBF11E0A0E0B1E0E0E0F3E002C000
:1000800005900D92AA30B107D9F721E0AAE0B1E0BE
:1000900001C01D92AC30B207E1F70E9457010C94E9
:1000A0007E010C9400001F920F920FB60F92112444
:1000B0008F939F9383ED90E30197F1F700C00000C9
:1000C0004A9912C080910B018F5F80930B01809140
:1000D0000B01893218F081E080930A0180910B01B5
:1000E0008A3F10F010920B019F918F910F900FBEDD
:1000F0000F901F9018951F920F920FB60F92112418
:100100008F939F9383ED90E30197F1F700C0000078
:100110004B9917C080910B01882331F080910B011E
:10012000815080930B0106C08AEF80930B0181E020
:1001300080930A0180910B01893218F410920A0110
:100140005E989F918F910F900FBE0F901F90189502
:10015000E9E6F0E0808182608083E89A80818860AF
:100160008083E99A7894089526B130E0082E02C081
:10017000359527950A94E2F720FD13C0EFE4F3ECE0
:100180003197F1F700C0000026B130E0A90102C0AC
:10019000559547958A95E2F7CA0151E08527817008
:1001A000089580E0089587B18F7887B988B1806716
:1001B00088B987B18F6087B984B1806F84B9569A46
:1001C000089590E195B9843658F0E9E28E9FE12DCB
:1001D0001124E295EF70F0E0E050FF4F908101C0F4
:1001E00090E098B9E1EEF4E03197F1F700C000003B
:1001F00090E295B98A30C0F09DEC899FE12D1124E1
:10020000E695E695E695E99F912D112496959695AC
:100210009695990F292F220F220F920FE91BF0E0DC
:10022000E050FF4F908101C090E098B9E1EEF4E01A
:100230003197F1F700C0000090E495B99DEC899FDB
:10024000912D1124969596959695990F292F220F09
:10025000220F920F891BE82FF0E0E050FF4F8081C2
:1002600088B981EE94E00197F1F700C0000008958D
:1002700084B18E6084B9559AE0EBF0E080818368A8
:100280008083E1EBF0E0808184608083E0E8F0E04F
:100290008081816A8083E1E8F0E0808189608083E9
:1002A00084B5836284BD85B5816085BD08950E9453
:1002B00038010E94D3000E94A800789480910B011D
:1002C000893208F45E9884E00E94B40085E00E94C0
:1002D000B400882349F080910A01813011F4109212
:1002E0000B0110920A015E9886E00E94B400809192
:1002F0000A0180910B010E94E100E0CFF894FFCF4A
:0A03000000010203040506070809C6
:00000001FF
