:100000000C9434000C9453000C947B000C9451001D
:100010000C9451000C9451000C9451000C9451001C
:100020000C9451000C9451000C9451000C94580104
:100030000C9451000C9451000C9451000C945100FC
:100040000C9451000C9451000C9451000C945100EC
:100050000C9451000C9451000C9451000C945100DC
:100060000C9451000C94510011241FBECFEFD8E026
:10007000DEBFCDBF11E0A0E0B1E0EAE2F6E002C0F1
:1000800005900D92AE30B107D9F721E0AEE0B1E0B6
:1000900001C01D92A431B207E1F70E9415020C9431
:1000A00013030C9400001F920F920FB60F921124AD
:1000B0008F939F9383ED90E30197F1F700C00000C9
:1000C0004A9912C0809111018F5F80931101809134
:1000D0001101893218F081E080930F0180911101A4
:1000E0008A3F10F0109211019F918F910F900FBED7
:1000F0000F901F9018951F920F920FB60F92112418
:100100008F939F9383ED90E30197F1F700C0000078
:100110004B9917C080911101882331F08091110112
:1001200081508093110106C08AEF8093110181E014
:1001300080930F0180911101893218F410920F0100
:100140005E989F918F910F900FBE0F901F90189502
:10015000E9E6F0E0808182608083E89A80818860AF
:100160008083E99A7894089526B130E0082E02C081
:10017000359527950A94E2F720FD13C0EFE4F3ECE0
:100180003197F1F700C0000026B130E0A90102C0AC
:10019000559547958A95E2F7CA0151E08527817008
:1001A000089580E0089587B18F7887B988B1806716
:1001B00088B987B18F6087B984B1806F84B9569A46
:1001C000089590E195B9843658F0E9E28E9FE12DCB
:1001D0001124E295EF70F0E0ED5FFE4F908101C0D9
:1001E00090E098B9E1EEF4E03197F1F700C000003B
:1001F00090E295B98A30C0F09DEC899FE12D1124E1
:10020000E695E695E695E99F912D112496959695AC
:100210009695990F292F220F220F920FE91BF0E0DC
:10022000ED5FFE4F908101C090E098B9E1EEF4E0FF
:100230003197F1F700C0000090E495B99DEC899FDB
:10024000912D1124969596959695990F292F220F09
:10025000220F920F891BE82FF0E0ED5FFE4F8081A7
:1002600088B981EE94E00197F1F700C0000008958D
:1002700090E895B9E82FF0E0EF5FFE4F808188B9F4
:1002800081EE94E00197F1F700C000000895E1E8E5
:10029000F0E080818C60808386EA9EE09093890004
:1002A00080938800EFE6F0E080818260808308958B
:1002B0001F920F920FB60F9211248F939F939091DC
:1002C0000E0181E0911180E080930E019F918F914A
:1002D0000F900FBE0F901F90189580910E018823EC
:1002E00011F05E9A08955E98089584B18E6084B985
:1002F000559AE0EBF0E0808183688083E1EBF0E0E9
:10030000808184608083E0E8F0E08081816A80837E
:10031000E1E8F0E080818960808384B5836284BDF8
:1003200085B5816085BD089580911101809111018D
:10033000803198F48091110191E1899F802D1124E1
:1003400090E0909389008093880010928B00109227
:100350008A0018BC1092B300089580911101803179
:10036000F8F0809111018A31D8F48091110129E1CE
:10037000829FC00111248F57914090931301809365
:1003800012012FEF30E030938900209388009927E5
:1003900090938B0080938A0018BC1092B30008954C
:1003A000809111018A31F0F0809111018432D0F4F2
:1003B0008091110129E1829FC00111248E57924042
:1003C00090931301809312012FEF30E03093890056
:1003D0002093880030938B0020938A0018BC809370
:1003E000B3000895809111018432F0F080911101E1
:1003F0008932D0F4809111012AE2829FC001112438
:10040000855A954090931301809312012FEF30E0AD
:10041000309389002093880030938B0020938A00CA
:1004200088BD8FEF8093B30008950E9475010E94EC
:10043000D3000E94A8000E94470178948091000197
:10044000813061F4109289001092880010928B0024
:1004500010928A0018BC1092B30004C015B818B8E6
:100460000E949401BB24B3940F2EF8E8CF2ED12C18
:10047000F02D0F2EFAE8EF2EF12CF02D03EB10E00B
:10048000C5E0D0E080911101893218F410920E017C
:100490005E9884E00E94B400882339F090911001A6
:1004A0008B2D911180E08093100185E00E94B400B3
:1004B000882359F080910F01813011F410921101BD
:1004C00010920F0110920E015E9886E00E94B40017
:1004D0008823C9F0909100018B2D911180E08093C9
:1004E000000180910001813051F4F60111821082E7
:1004F000F7011182108218BCF801108204C015B8EF
:1005000018B80E94940180910001882309F458C012
:100510008091100181111BC080910F01813061F425
:100520000E946D01809111010E94E10080911001F3
:100530000E9438010E949401809111010E94E10003
:10054000809110010E9438010E9494019BCF8091FC
:100550000F018130D9F40E946D018091110190E06A
:100560009C01220F331F220F331F220F331F820FD4
:10057000931FBE010E94EB0280E2860F0E94E10001
:10058000809110010E9438010E9494018091110114
:1005900090E09C01220F331F220F331F220F331FC5
:1005A000820F931FBE010E94EB0280E2860F0E9421
:1005B000E100809110010E9438010E94940162CFF5
:1005C00080910F01813021F40E946D010E949401FD
:1005D0000E94940157CF97FB072E16F4009407D082
:1005E00077FD09D00E94FF0207FC05D03EF49095EC
:1005F00081959F4F0895709561957F4F0895AA1B2F
:10060000BB1B51E107C0AA1FBB1FA617B70710F0FD
:10061000A61BB70B881F991F5A95A9F7809590952F
:0A062000BC01CD010895F894FFCF4E
:0E062A00010C0F000102030405060708090079
:00000001FF
